{
  "_format": "hh-sol-artifact-1",
  "contractName": "DopotReward",
  "sourceName": "contracts/company/DopotReward.sol",
  "abi": [
    {
      "inputs": [],
      "stateMutability": "nonpayable",
      "type": "constructor"
    },
    {
      "anonymous": false,
      "inputs": [
        {
          "indexed": true,
          "internalType": "address",
          "name": "account",
          "type": "address"
        },
        {
          "indexed": true,
          "internalType": "address",
          "name": "operator",
          "type": "address"
        },
        {
          "indexed": false,
          "internalType": "bool",
          "name": "approved",
          "type": "bool"
        }
      ],
      "name": "ApprovalForAll",
      "type": "event"
    },
    {
      "anonymous": false,
      "inputs": [
        {
          "indexed": true,
          "internalType": "uint256",
          "name": "tokenId",
          "type": "uint256"
        },
        {
          "indexed": true,
          "internalType": "address",
          "name": "buyer",
          "type": "address"
        },
        {
          "indexed": false,
          "internalType": "uint256",
          "name": "tokenCount",
          "type": "uint256"
        }
      ],
      "name": "RewardDelivered",
      "type": "event"
    },
    {
      "anonymous": false,
      "inputs": [
        {
          "indexed": false,
          "internalType": "address",
          "name": "to",
          "type": "address"
        },
        {
          "indexed": false,
          "internalType": "uint256",
          "name": "id",
          "type": "uint256"
        },
        {
          "indexed": false,
          "internalType": "uint256",
          "name": "amount",
          "type": "uint256"
        }
      ],
      "name": "RewardMinted",
      "type": "event"
    },
    {
      "anonymous": false,
      "inputs": [
        {
          "indexed": true,
          "internalType": "bytes32",
          "name": "role",
          "type": "bytes32"
        },
        {
          "indexed": true,
          "internalType": "bytes32",
          "name": "previousAdminRole",
          "type": "bytes32"
        },
        {
          "indexed": true,
          "internalType": "bytes32",
          "name": "newAdminRole",
          "type": "bytes32"
        }
      ],
      "name": "RoleAdminChanged",
      "type": "event"
    },
    {
      "anonymous": false,
      "inputs": [
        {
          "indexed": true,
          "internalType": "bytes32",
          "name": "role",
          "type": "bytes32"
        },
        {
          "indexed": true,
          "internalType": "address",
          "name": "account",
          "type": "address"
        },
        {
          "indexed": true,
          "internalType": "address",
          "name": "sender",
          "type": "address"
        }
      ],
      "name": "RoleGranted",
      "type": "event"
    },
    {
      "anonymous": false,
      "inputs": [
        {
          "indexed": true,
          "internalType": "bytes32",
          "name": "role",
          "type": "bytes32"
        },
        {
          "indexed": true,
          "internalType": "address",
          "name": "account",
          "type": "address"
        },
        {
          "indexed": true,
          "internalType": "address",
          "name": "sender",
          "type": "address"
        }
      ],
      "name": "RoleRevoked",
      "type": "event"
    },
    {
      "anonymous": false,
      "inputs": [
        {
          "indexed": true,
          "internalType": "address",
          "name": "operator",
          "type": "address"
        },
        {
          "indexed": true,
          "internalType": "address",
          "name": "from",
          "type": "address"
        },
        {
          "indexed": true,
          "internalType": "address",
          "name": "to",
          "type": "address"
        },
        {
          "indexed": false,
          "internalType": "uint256[]",
          "name": "ids",
          "type": "uint256[]"
        },
        {
          "indexed": false,
          "internalType": "uint256[]",
          "name": "values",
          "type": "uint256[]"
        }
      ],
      "name": "TransferBatch",
      "type": "event"
    },
    {
      "anonymous": false,
      "inputs": [
        {
          "indexed": true,
          "internalType": "address",
          "name": "operator",
          "type": "address"
        },
        {
          "indexed": true,
          "internalType": "address",
          "name": "from",
          "type": "address"
        },
        {
          "indexed": true,
          "internalType": "address",
          "name": "to",
          "type": "address"
        },
        {
          "indexed": false,
          "internalType": "uint256",
          "name": "id",
          "type": "uint256"
        },
        {
          "indexed": false,
          "internalType": "uint256",
          "name": "value",
          "type": "uint256"
        }
      ],
      "name": "TransferSingle",
      "type": "event"
    },
    {
      "anonymous": false,
      "inputs": [
        {
          "indexed": false,
          "internalType": "string",
          "name": "value",
          "type": "string"
        },
        {
          "indexed": true,
          "internalType": "uint256",
          "name": "id",
          "type": "uint256"
        }
      ],
      "name": "URI",
      "type": "event"
    },
    {
      "inputs": [],
      "name": "DEFAULT_ADMIN_ROLE",
      "outputs": [
        {
          "internalType": "bytes32",
          "name": "",
          "type": "bytes32"
        }
      ],
      "stateMutability": "view",
      "type": "function"
    },
    {
      "inputs": [],
      "name": "MINTER_ROLE",
      "outputs": [
        {
          "internalType": "bytes32",
          "name": "",
          "type": "bytes32"
        }
      ],
      "stateMutability": "view",
      "type": "function"
    },
    {
      "inputs": [
        {
          "internalType": "address",
          "name": "account",
          "type": "address"
        },
        {
          "internalType": "uint256",
          "name": "id",
          "type": "uint256"
        }
      ],
      "name": "balanceOf",
      "outputs": [
        {
          "internalType": "uint256",
          "name": "",
          "type": "uint256"
        }
      ],
      "stateMutability": "view",
      "type": "function"
    },
    {
      "inputs": [
        {
          "internalType": "address[]",
          "name": "accounts",
          "type": "address[]"
        },
        {
          "internalType": "uint256[]",
          "name": "ids",
          "type": "uint256[]"
        }
      ],
      "name": "balanceOfBatch",
      "outputs": [
        {
          "internalType": "uint256[]",
          "name": "",
          "type": "uint256[]"
        }
      ],
      "stateMutability": "view",
      "type": "function"
    },
    {
      "inputs": [
        {
          "internalType": "address",
          "name": "account",
          "type": "address"
        },
        {
          "internalType": "uint256",
          "name": "id",
          "type": "uint256"
        },
        {
          "internalType": "uint256",
          "name": "value",
          "type": "uint256"
        }
      ],
      "name": "burn",
      "outputs": [],
      "stateMutability": "nonpayable",
      "type": "function"
    },
    {
      "inputs": [
        {
          "internalType": "address",
          "name": "account",
          "type": "address"
        },
        {
          "internalType": "uint256[]",
          "name": "ids",
          "type": "uint256[]"
        },
        {
          "internalType": "uint256[]",
          "name": "values",
          "type": "uint256[]"
        }
      ],
      "name": "burnBatch",
      "outputs": [],
      "stateMutability": "nonpayable",
      "type": "function"
    },
    {
      "inputs": [
        {
          "internalType": "uint256",
          "name": "_tokenId",
          "type": "uint256"
        },
        {
          "internalType": "uint256",
          "name": "_tokenCount",
          "type": "uint256"
        }
      ],
      "name": "convertToNFT",
      "outputs": [],
      "stateMutability": "nonpayable",
      "type": "function"
    },
    {
      "inputs": [
        {
          "internalType": "bytes32",
          "name": "role",
          "type": "bytes32"
        }
      ],
      "name": "getRoleAdmin",
      "outputs": [
        {
          "internalType": "bytes32",
          "name": "",
          "type": "bytes32"
        }
      ],
      "stateMutability": "view",
      "type": "function"
    },
    {
      "inputs": [
        {
          "internalType": "bytes32",
          "name": "role",
          "type": "bytes32"
        },
        {
          "internalType": "address",
          "name": "account",
          "type": "address"
        }
      ],
      "name": "grantRole",
      "outputs": [],
      "stateMutability": "nonpayable",
      "type": "function"
    },
    {
      "inputs": [
        {
          "internalType": "bytes32",
          "name": "role",
          "type": "bytes32"
        },
        {
          "internalType": "address",
          "name": "account",
          "type": "address"
        }
      ],
      "name": "hasRole",
      "outputs": [
        {
          "internalType": "bool",
          "name": "",
          "type": "bool"
        }
      ],
      "stateMutability": "view",
      "type": "function"
    },
    {
      "inputs": [
        {
          "internalType": "address",
          "name": "account",
          "type": "address"
        },
        {
          "internalType": "address",
          "name": "operator",
          "type": "address"
        }
      ],
      "name": "isApprovedForAll",
      "outputs": [
        {
          "internalType": "bool",
          "name": "",
          "type": "bool"
        }
      ],
      "stateMutability": "view",
      "type": "function"
    },
    {
      "inputs": [
        {
          "internalType": "address",
          "name": "to",
          "type": "address"
        },
        {
          "internalType": "string",
          "name": "tokenURI",
          "type": "string"
        },
        {
          "internalType": "uint256",
          "name": "amount",
          "type": "uint256"
        }
      ],
      "name": "mintToken",
      "outputs": [
        {
          "internalType": "uint256",
          "name": "",
          "type": "uint256"
        }
      ],
      "stateMutability": "nonpayable",
      "type": "function"
    },
    {
      "inputs": [
        {
          "internalType": "bytes32",
          "name": "role",
          "type": "bytes32"
        },
        {
          "internalType": "address",
          "name": "account",
          "type": "address"
        }
      ],
      "name": "renounceRole",
      "outputs": [],
      "stateMutability": "nonpayable",
      "type": "function"
    },
    {
      "inputs": [
        {
          "internalType": "bytes32",
          "name": "role",
          "type": "bytes32"
        },
        {
          "internalType": "address",
          "name": "account",
          "type": "address"
        }
      ],
      "name": "revokeRole",
      "outputs": [],
      "stateMutability": "nonpayable",
      "type": "function"
    },
    {
      "inputs": [
        {
          "internalType": "address",
          "name": "from",
          "type": "address"
        },
        {
          "internalType": "address",
          "name": "to",
          "type": "address"
        },
        {
          "internalType": "uint256[]",
          "name": "ids",
          "type": "uint256[]"
        },
        {
          "internalType": "uint256[]",
          "name": "amounts",
          "type": "uint256[]"
        },
        {
          "internalType": "bytes",
          "name": "data",
          "type": "bytes"
        }
      ],
      "name": "safeBatchTransferFrom",
      "outputs": [],
      "stateMutability": "nonpayable",
      "type": "function"
    },
    {
      "inputs": [
        {
          "internalType": "address",
          "name": "from",
          "type": "address"
        },
        {
          "internalType": "address",
          "name": "to",
          "type": "address"
        },
        {
          "internalType": "uint256",
          "name": "id",
          "type": "uint256"
        },
        {
          "internalType": "uint256",
          "name": "amount",
          "type": "uint256"
        },
        {
          "internalType": "bytes",
          "name": "data",
          "type": "bytes"
        }
      ],
      "name": "safeTransferFrom",
      "outputs": [],
      "stateMutability": "nonpayable",
      "type": "function"
    },
    {
      "inputs": [
        {
          "internalType": "address",
          "name": "operator",
          "type": "address"
        },
        {
          "internalType": "bool",
          "name": "approved",
          "type": "bool"
        }
      ],
      "name": "setApprovalForAll",
      "outputs": [],
      "stateMutability": "nonpayable",
      "type": "function"
    },
    {
      "inputs": [
        {
          "internalType": "bytes4",
          "name": "interfaceId",
          "type": "bytes4"
        }
      ],
      "name": "supportsInterface",
      "outputs": [
        {
          "internalType": "bool",
          "name": "",
          "type": "bool"
        }
      ],
      "stateMutability": "view",
      "type": "function"
    },
    {
      "inputs": [
        {
          "internalType": "uint256",
          "name": "_tokenID",
          "type": "uint256"
        }
      ],
      "name": "uri",
      "outputs": [
        {
          "internalType": "string",
          "name": "",
          "type": "string"
        }
      ],
      "stateMutability": "view",
      "type": "function"
    }
  ],
  "bytecode": "0x60806040523480156200001157600080fd5b506040518060400160405280600b81526020017f697066733a2f2f7b69647d0000000000000000000000000000000000000000008152506200005981620000a760201b60201c565b506200006f6000801b33620000c360201b60201c565b620000a17f9f2df0fed2c77648de5860a4cc508cd0818c85b8b8a1ab4ceeef8d981c8956a633620000c360201b60201c565b62000353565b8060029080519060200190620000bf9291906200023e565b5050565b620000d58282620000d960201b60201c565b5050565b620000eb8282620001cb60201b60201c565b620001c75760016003600084815260200190815260200160002060000160008373ffffffffffffffffffffffffffffffffffffffff1673ffffffffffffffffffffffffffffffffffffffff16815260200190815260200160002060006101000a81548160ff0219169083151502179055506200016c6200023660201b60201c565b73ffffffffffffffffffffffffffffffffffffffff168173ffffffffffffffffffffffffffffffffffffffff16837f2f8788117e7eff1d82e926ec794901d17c78024a50270940304540a733656f0d60405160405180910390a45b5050565b60006003600084815260200190815260200160002060000160008373ffffffffffffffffffffffffffffffffffffffff1673ffffffffffffffffffffffffffffffffffffffff16815260200190815260200160002060009054906101000a900460ff16905092915050565b600033905090565b8280546200024c906200031d565b90600052602060002090601f016020900481019282620002705760008555620002bc565b82601f106200028b57805160ff1916838001178555620002bc565b82800160010185558215620002bc579182015b82811115620002bb5782518255916020019190600101906200029e565b5b509050620002cb9190620002cf565b5090565b5b80821115620002ea576000816000905550600101620002d0565b5090565b7f4e487b7100000000000000000000000000000000000000000000000000000000600052602260045260246000fd5b600060028204905060018216806200033657607f821691505b602082108114156200034d576200034c620002ee565b5b50919050565b61406980620003636000396000f3fe608060405234801561001057600080fd5b50600436106101205760003560e01c80636b20c454116100ad578063d539139311610071578063d53913931461033b578063d547741f14610359578063e985e9c514610375578063f242432a146103a5578063f5298aca146103c157610120565b80636b20c454146102995780636dc3ee35146102b557806391d14854146102d1578063a217fddf14610301578063a22cb4651461031f57610120565b80632eb2c2d6116100f45780632eb2c2d6146101e55780632f2ff15d1461020157806336568abe1461021d5780634e1273f414610239578063611b2fed1461026957610120565b8062fdd58e1461012557806301ffc9a7146101555780630e89341c14610185578063248a9ca3146101b5575b600080fd5b61013f600480360381019061013a91906125e3565b6103dd565b60405161014c9190612632565b60405180910390f35b61016f600480360381019061016a91906126a5565b6104a6565b60405161017c91906126ed565b60405180910390f35b61019f600480360381019061019a9190612708565b6104b8565b6040516101ac91906127ce565b60405180910390f35b6101cf60048036038101906101ca9190612826565b6104f3565b6040516101dc9190612862565b60405180910390f35b6101ff60048036038101906101fa9190612a7a565b610513565b005b61021b60048036038101906102169190612b49565b6105b4565b005b61023760048036038101906102329190612b49565b6105dd565b005b610253600480360381019061024e9190612c4c565b610660565b6040516102609190612d82565b60405180910390f35b610283600480360381019061027e9190612e45565b610779565b6040516102909190612632565b60405180910390f35b6102b360048036038101906102ae9190612eb4565b610831565b005b6102cf60048036038101906102ca9190612f3f565b6108ce565b005b6102eb60048036038101906102e69190612b49565b61096f565b6040516102f891906126ed565b60405180910390f35b6103096109da565b6040516103169190612862565b60405180910390f35b61033960048036038101906103349190612fab565b6109e1565b005b610343610b62565b6040516103509190612862565b60405180910390f35b610373600480360381019061036e9190612b49565b610b86565b005b61038f600480360381019061038a9190612feb565b610baf565b60405161039c91906126ed565b60405180910390f35b6103bf60048036038101906103ba919061302b565b610c43565b005b6103db60048036038101906103d691906130c2565b610ce4565b005b60008073ffffffffffffffffffffffffffffffffffffffff168373ffffffffffffffffffffffffffffffffffffffff16141561044e576040517f08c379a000000000000000000000000000000000000000000000000000000000815260040161044590613187565b60405180910390fd5b60008083815260200190815260200160002060008473ffffffffffffffffffffffffffffffffffffffff1673ffffffffffffffffffffffffffffffffffffffff16815260200190815260200160002054905092915050565b60006104b182610d81565b9050919050565b6060600460008381526020019081526020016000206040516020016104dd91906132f3565b6040516020818303038152906040529050919050565b600060036000838152602001908152602001600020600101549050919050565b61051b610dfb565b73ffffffffffffffffffffffffffffffffffffffff168573ffffffffffffffffffffffffffffffffffffffff16148061056157506105608561055b610dfb565b610baf565b5b6105a0576040517f08c379a000000000000000000000000000000000000000000000000000000000815260040161059790613387565b60405180910390fd5b6105ad8585858585610e03565b5050505050565b6105bd826104f3565b6105ce816105c9610dfb565b611117565b6105d883836111b4565b505050565b6105e5610dfb565b73ffffffffffffffffffffffffffffffffffffffff168173ffffffffffffffffffffffffffffffffffffffff1614610652576040517f08c379a000000000000000000000000000000000000000000000000000000000815260040161064990613419565b60405180910390fd5b61065c8282611295565b5050565b606081518351146106a6576040517f08c379a000000000000000000000000000000000000000000000000000000000815260040161069d906134ab565b60405180910390fd5b6000835167ffffffffffffffff8111156106c3576106c2612882565b5b6040519080825280602002602001820160405280156106f15781602001602082028036833780820191505090505b50905060005b845181101561076e5761073e858281518110610716576107156134cb565b5b6020026020010151858381518110610731576107306134cb565b5b60200260200101516103dd565b828281518110610751576107506134cb565b5b6020026020010181815250508061076790613529565b90506106f7565b508091505092915050565b60007f9f2df0fed2c77648de5860a4cc508cd0818c85b8b8a1ab4ceeef8d981c8956a66107ad816107a8610dfb565b611117565b60006107b96005611377565b90506107d633828660405180602001604052806000815250611385565b6107e0818661151b565b6107ea6005611547565b7f3ab3e8ad6923a956799ae3fe031dfa1cb6a25c9743413b0c4ca812a87b02202a86828660405161081d93929190613581565b60405180910390a180925050509392505050565b610839610dfb565b73ffffffffffffffffffffffffffffffffffffffff168373ffffffffffffffffffffffffffffffffffffffff16148061087f575061087e83610879610dfb565b610baf565b5b6108be576040517f08c379a00000000000000000000000000000000000000000000000000000000081526004016108b59061362a565b60405180910390fd5b6108c983838361155d565b505050565b7f9f2df0fed2c77648de5860a4cc508cd0818c85b8b8a1ab4ceeef8d981c8956a6610900816108fb610dfb565b611117565b61091b33848460405180602001604052806000815250611385565b3373ffffffffffffffffffffffffffffffffffffffff16837f799cb9793ddc45b4e0595bc1374e80d423a1685eb2b2d73435b3ed77f86b2b7f846040516109629190612632565b60405180910390a3505050565b60006003600084815260200190815260200160002060000160008373ffffffffffffffffffffffffffffffffffffffff1673ffffffffffffffffffffffffffffffffffffffff16815260200190815260200160002060009054906101000a900460ff16905092915050565b6000801b81565b8173ffffffffffffffffffffffffffffffffffffffff16610a00610dfb565b73ffffffffffffffffffffffffffffffffffffffff161415610a57576040517f08c379a0000000000000000000000000000000000000000000000000000000008152600401610a4e906136bc565b60405180910390fd5b8060016000610a64610dfb565b73ffffffffffffffffffffffffffffffffffffffff1673ffffffffffffffffffffffffffffffffffffffff16815260200190815260200160002060008473ffffffffffffffffffffffffffffffffffffffff1673ffffffffffffffffffffffffffffffffffffffff16815260200190815260200160002060006101000a81548160ff0219169083151502179055508173ffffffffffffffffffffffffffffffffffffffff16610b11610dfb565b73ffffffffffffffffffffffffffffffffffffffff167f17307eab39ab6107e8899845ad3d59bd9653f200f220920489ca2b5937696c3183604051610b5691906126ed565b60405180910390a35050565b7f9f2df0fed2c77648de5860a4cc508cd0818c85b8b8a1ab4ceeef8d981c8956a681565b610b8f826104f3565b610ba081610b9b610dfb565b611117565b610baa8383611295565b505050565b6000600160008473ffffffffffffffffffffffffffffffffffffffff1673ffffffffffffffffffffffffffffffffffffffff16815260200190815260200160002060008373ffffffffffffffffffffffffffffffffffffffff1673ffffffffffffffffffffffffffffffffffffffff16815260200190815260200160002060009054906101000a900460ff16905092915050565b610c4b610dfb565b73ffffffffffffffffffffffffffffffffffffffff168573ffffffffffffffffffffffffffffffffffffffff161480610c915750610c9085610c8b610dfb565b610baf565b5b610cd0576040517f08c379a0000000000000000000000000000000000000000000000000000000008152600401610cc79061362a565b60405180910390fd5b610cdd858585858561180e565b5050505050565b610cec610dfb565b73ffffffffffffffffffffffffffffffffffffffff168373ffffffffffffffffffffffffffffffffffffffff161480610d325750610d3183610d2c610dfb565b610baf565b5b610d71576040517f08c379a0000000000000000000000000000000000000000000000000000000008152600401610d689061362a565b60405180910390fd5b610d7c838383611a90565b505050565b60007f7965db0b000000000000000000000000000000000000000000000000000000007bffffffffffffffffffffffffffffffffffffffffffffffffffffffff1916827bffffffffffffffffffffffffffffffffffffffffffffffffffffffff19161480610df45750610df382611cad565b5b9050919050565b600033905090565b8151835114610e47576040517f08c379a0000000000000000000000000000000000000000000000000000000008152600401610e3e9061374e565b60405180910390fd5b600073ffffffffffffffffffffffffffffffffffffffff168473ffffffffffffffffffffffffffffffffffffffff161415610eb7576040517f08c379a0000000000000000000000000000000000000000000000000000000008152600401610eae906137e0565b60405180910390fd5b6000610ec1610dfb565b9050610ed1818787878787611d8f565b60005b8451811015611082576000858281518110610ef257610ef16134cb565b5b602002602001015190506000858381518110610f1157610f106134cb565b5b60200260200101519050600080600084815260200190815260200160002060008b73ffffffffffffffffffffffffffffffffffffffff1673ffffffffffffffffffffffffffffffffffffffff16815260200190815260200160002054905081811015610fb2576040517f08c379a0000000000000000000000000000000000000000000000000000000008152600401610fa990613872565b60405180910390fd5b81810360008085815260200190815260200160002060008c73ffffffffffffffffffffffffffffffffffffffff1673ffffffffffffffffffffffffffffffffffffffff168152602001908152602001600020819055508160008085815260200190815260200160002060008b73ffffffffffffffffffffffffffffffffffffffff1673ffffffffffffffffffffffffffffffffffffffff16815260200190815260200160002060008282546110679190613892565b925050819055505050508061107b90613529565b9050610ed4565b508473ffffffffffffffffffffffffffffffffffffffff168673ffffffffffffffffffffffffffffffffffffffff168273ffffffffffffffffffffffffffffffffffffffff167f4a39dc06d4c0dbc64b70af90fd698a233a518aa5d07e595d983b8c0526c8f7fb87876040516110f99291906138e8565b60405180910390a461110f818787878787611d97565b505050505050565b611121828261096f565b6111b0576111468173ffffffffffffffffffffffffffffffffffffffff166014611f7e565b6111548360001c6020611f7e565b6040516020016111659291906139e8565b6040516020818303038152906040526040517f08c379a00000000000000000000000000000000000000000000000000000000081526004016111a791906127ce565b60405180910390fd5b5050565b6111be828261096f565b6112915760016003600084815260200190815260200160002060000160008373ffffffffffffffffffffffffffffffffffffffff1673ffffffffffffffffffffffffffffffffffffffff16815260200190815260200160002060006101000a81548160ff021916908315150217905550611236610dfb565b73ffffffffffffffffffffffffffffffffffffffff168173ffffffffffffffffffffffffffffffffffffffff16837f2f8788117e7eff1d82e926ec794901d17c78024a50270940304540a733656f0d60405160405180910390a45b5050565b61129f828261096f565b156113735760006003600084815260200190815260200160002060000160008373ffffffffffffffffffffffffffffffffffffffff1673ffffffffffffffffffffffffffffffffffffffff16815260200190815260200160002060006101000a81548160ff021916908315150217905550611318610dfb565b73ffffffffffffffffffffffffffffffffffffffff168173ffffffffffffffffffffffffffffffffffffffff16837ff6391f5c32d9c69d2a47ea670b442974b53935d1edc7fd64eb21e047a839171b60405160405180910390a45b5050565b600081600001549050919050565b600073ffffffffffffffffffffffffffffffffffffffff168473ffffffffffffffffffffffffffffffffffffffff1614156113f5576040517f08c379a00000000000000000000000000000000000000000000000000000000081526004016113ec90613a94565b60405180910390fd5b60006113ff610dfb565b905061142081600087611411886121ba565b61141a886121ba565b87611d8f565b8260008086815260200190815260200160002060008773ffffffffffffffffffffffffffffffffffffffff1673ffffffffffffffffffffffffffffffffffffffff168152602001908152602001600020600082825461147f9190613892565b925050819055508473ffffffffffffffffffffffffffffffffffffffff16600073ffffffffffffffffffffffffffffffffffffffff168273ffffffffffffffffffffffffffffffffffffffff167fc3d58168c5ae7397731d063d5bbf3d657854427343f4c083240f7aacaa2d0f6287876040516114fd929190613ab4565b60405180910390a461151481600087878787612234565b5050505050565b80600460008481526020019081526020016000209080519060200190611542929190612498565b505050565b6001816000016000828254019250508190555050565b600073ffffffffffffffffffffffffffffffffffffffff168373ffffffffffffffffffffffffffffffffffffffff1614156115cd576040517f08c379a00000000000000000000000000000000000000000000000000000000081526004016115c490613b4f565b60405180910390fd5b8051825114611611576040517f08c379a00000000000000000000000000000000000000000000000000000000081526004016116089061374e565b60405180910390fd5b600061161b610dfb565b905061163b81856000868660405180602001604052806000815250611d8f565b60005b835181101561178857600084828151811061165c5761165b6134cb565b5b60200260200101519050600084838151811061167b5761167a6134cb565b5b60200260200101519050600080600084815260200190815260200160002060008973ffffffffffffffffffffffffffffffffffffffff1673ffffffffffffffffffffffffffffffffffffffff1681526020019081526020016000205490508181101561171c576040517f08c379a000000000000000000000000000000000000000000000000000000000815260040161171390613be1565b60405180910390fd5b81810360008085815260200190815260200160002060008a73ffffffffffffffffffffffffffffffffffffffff1673ffffffffffffffffffffffffffffffffffffffff16815260200190815260200160002081905550505050808061178090613529565b91505061163e565b50600073ffffffffffffffffffffffffffffffffffffffff168473ffffffffffffffffffffffffffffffffffffffff168273ffffffffffffffffffffffffffffffffffffffff167f4a39dc06d4c0dbc64b70af90fd698a233a518aa5d07e595d983b8c0526c8f7fb86866040516118009291906138e8565b60405180910390a450505050565b600073ffffffffffffffffffffffffffffffffffffffff168473ffffffffffffffffffffffffffffffffffffffff16141561187e576040517f08c379a0000000000000000000000000000000000000000000000000000000008152600401611875906137e0565b60405180910390fd5b6000611888610dfb565b90506118a8818787611899886121ba565b6118a2886121ba565b87611d8f565b600080600086815260200190815260200160002060008873ffffffffffffffffffffffffffffffffffffffff1673ffffffffffffffffffffffffffffffffffffffff1681526020019081526020016000205490508381101561193f576040517f08c379a000000000000000000000000000000000000000000000000000000000815260040161193690613872565b60405180910390fd5b83810360008087815260200190815260200160002060008973ffffffffffffffffffffffffffffffffffffffff1673ffffffffffffffffffffffffffffffffffffffff168152602001908152602001600020819055508360008087815260200190815260200160002060008873ffffffffffffffffffffffffffffffffffffffff1673ffffffffffffffffffffffffffffffffffffffff16815260200190815260200160002060008282546119f49190613892565b925050819055508573ffffffffffffffffffffffffffffffffffffffff168773ffffffffffffffffffffffffffffffffffffffff168373ffffffffffffffffffffffffffffffffffffffff167fc3d58168c5ae7397731d063d5bbf3d657854427343f4c083240f7aacaa2d0f628888604051611a71929190613ab4565b60405180910390a4611a87828888888888612234565b50505050505050565b600073ffffffffffffffffffffffffffffffffffffffff168373ffffffffffffffffffffffffffffffffffffffff161415611b00576040517f08c379a0000000000000000000000000000000000000000000000000000000008152600401611af790613b4f565b60405180910390fd5b6000611b0a610dfb565b9050611b3a81856000611b1c876121ba565b611b25876121ba565b60405180602001604052806000815250611d8f565b600080600085815260200190815260200160002060008673ffffffffffffffffffffffffffffffffffffffff1673ffffffffffffffffffffffffffffffffffffffff16815260200190815260200160002054905082811015611bd1576040517f08c379a0000000000000000000000000000000000000000000000000000000008152600401611bc890613be1565b60405180910390fd5b82810360008086815260200190815260200160002060008773ffffffffffffffffffffffffffffffffffffffff1673ffffffffffffffffffffffffffffffffffffffff16815260200190815260200160002081905550600073ffffffffffffffffffffffffffffffffffffffff168573ffffffffffffffffffffffffffffffffffffffff168373ffffffffffffffffffffffffffffffffffffffff167fc3d58168c5ae7397731d063d5bbf3d657854427343f4c083240f7aacaa2d0f628787604051611c9e929190613ab4565b60405180910390a45050505050565b60007fd9b67a26000000000000000000000000000000000000000000000000000000007bffffffffffffffffffffffffffffffffffffffffffffffffffffffff1916827bffffffffffffffffffffffffffffffffffffffffffffffffffffffff19161480611d7857507f0e89341c000000000000000000000000000000000000000000000000000000007bffffffffffffffffffffffffffffffffffffffffffffffffffffffff1916827bffffffffffffffffffffffffffffffffffffffffffffffffffffffff1916145b80611d885750611d878261241b565b5b9050919050565b505050505050565b611db68473ffffffffffffffffffffffffffffffffffffffff16612485565b15611f76578373ffffffffffffffffffffffffffffffffffffffff1663bc197c8187878686866040518663ffffffff1660e01b8152600401611dfc959493929190613c56565b602060405180830381600087803b158015611e1657600080fd5b505af1925050508015611e4757506040513d601f19601f82011682018060405250810190611e449190613cd3565b60015b611eed57611e53613d0d565b806308c379a01415611eb05750611e68613d2f565b80611e735750611eb2565b806040517f08c379a0000000000000000000000000000000000000000000000000000000008152600401611ea791906127ce565b60405180910390fd5b505b6040517f08c379a0000000000000000000000000000000000000000000000000000000008152600401611ee490613e37565b60405180910390fd5b63bc197c8160e01b7bffffffffffffffffffffffffffffffffffffffffffffffffffffffff1916817bffffffffffffffffffffffffffffffffffffffffffffffffffffffff191614611f74576040517f08c379a0000000000000000000000000000000000000000000000000000000008152600401611f6b90613ec9565b60405180910390fd5b505b505050505050565b606060006002836002611f919190613ee9565b611f9b9190613892565b67ffffffffffffffff811115611fb457611fb3612882565b5b6040519080825280601f01601f191660200182016040528015611fe65781602001600182028036833780820191505090505b5090507f30000000000000000000000000000000000000000000000000000000000000008160008151811061201e5761201d6134cb565b5b60200101907effffffffffffffffffffffffffffffffffffffffffffffffffffffffffffff1916908160001a9053507f780000000000000000000000000000000000000000000000000000000000000081600181518110612082576120816134cb565b5b60200101907effffffffffffffffffffffffffffffffffffffffffffffffffffffffffffff1916908160001a905350600060018460026120c29190613ee9565b6120cc9190613892565b90505b600181111561216c577f3031323334353637383961626364656600000000000000000000000000000000600f86166010811061210e5761210d6134cb565b5b1a60f81b828281518110612125576121246134cb565b5b60200101907effffffffffffffffffffffffffffffffffffffffffffffffffffffffffffff1916908160001a905350600485901c94508061216590613f43565b90506120cf565b50600084146121b0576040517f08c379a00000000000000000000000000000000000000000000000000000000081526004016121a790613fb9565b60405180910390fd5b8091505092915050565b60606000600167ffffffffffffffff8111156121d9576121d8612882565b5b6040519080825280602002602001820160405280156122075781602001602082028036833780820191505090505b509050828160008151811061221f5761221e6134cb565b5b60200260200101818152505080915050919050565b6122538473ffffffffffffffffffffffffffffffffffffffff16612485565b15612413578373ffffffffffffffffffffffffffffffffffffffff1663f23a6e6187878686866040518663ffffffff1660e01b8152600401612299959493929190613fd9565b602060405180830381600087803b1580156122b357600080fd5b505af19250505080156122e457506040513d601f19601f820116820180604052508101906122e19190613cd3565b60015b61238a576122f0613d0d565b806308c379a0141561234d5750612305613d2f565b80612310575061234f565b806040517f08c379a000000000000000000000000000000000000000000000000000000000815260040161234491906127ce565b60405180910390fd5b505b6040517f08c379a000000000000000000000000000000000000000000000000000000000815260040161238190613e37565b60405180910390fd5b63f23a6e6160e01b7bffffffffffffffffffffffffffffffffffffffffffffffffffffffff1916817bffffffffffffffffffffffffffffffffffffffffffffffffffffffff191614612411576040517f08c379a000000000000000000000000000000000000000000000000000000000815260040161240890613ec9565b60405180910390fd5b505b505050505050565b60007f01ffc9a7000000000000000000000000000000000000000000000000000000007bffffffffffffffffffffffffffffffffffffffffffffffffffffffff1916827bffffffffffffffffffffffffffffffffffffffffffffffffffffffff1916149050919050565b600080823b905060008111915050919050565b8280546124a49061322d565b90600052602060002090601f0160209004810192826124c6576000855561250d565b82601f106124df57805160ff191683800117855561250d565b8280016001018555821561250d579182015b8281111561250c5782518255916020019190600101906124f1565b5b50905061251a919061251e565b5090565b5b8082111561253757600081600090555060010161251f565b5090565b6000604051905090565b600080fd5b600080fd5b600073ffffffffffffffffffffffffffffffffffffffff82169050919050565b600061257a8261254f565b9050919050565b61258a8161256f565b811461259557600080fd5b50565b6000813590506125a781612581565b92915050565b6000819050919050565b6125c0816125ad565b81146125cb57600080fd5b50565b6000813590506125dd816125b7565b92915050565b600080604083850312156125fa576125f9612545565b5b600061260885828601612598565b9250506020612619858286016125ce565b9150509250929050565b61262c816125ad565b82525050565b60006020820190506126476000830184612623565b92915050565b60007fffffffff0000000000000000000000000000000000000000000000000000000082169050919050565b6126828161264d565b811461268d57600080fd5b50565b60008135905061269f81612679565b92915050565b6000602082840312156126bb576126ba612545565b5b60006126c984828501612690565b91505092915050565b60008115159050919050565b6126e7816126d2565b82525050565b600060208201905061270260008301846126de565b92915050565b60006020828403121561271e5761271d612545565b5b600061272c848285016125ce565b91505092915050565b600081519050919050565b600082825260208201905092915050565b60005b8381101561276f578082015181840152602081019050612754565b8381111561277e576000848401525b50505050565b6000601f19601f8301169050919050565b60006127a082612735565b6127aa8185612740565b93506127ba818560208601612751565b6127c381612784565b840191505092915050565b600060208201905081810360008301526127e88184612795565b905092915050565b6000819050919050565b612803816127f0565b811461280e57600080fd5b50565b600081359050612820816127fa565b92915050565b60006020828403121561283c5761283b612545565b5b600061284a84828501612811565b91505092915050565b61285c816127f0565b82525050565b60006020820190506128776000830184612853565b92915050565b600080fd5b7f4e487b7100000000000000000000000000000000000000000000000000000000600052604160045260246000fd5b6128ba82612784565b810181811067ffffffffffffffff821117156128d9576128d8612882565b5b80604052505050565b60006128ec61253b565b90506128f882826128b1565b919050565b600067ffffffffffffffff82111561291857612917612882565b5b602082029050602081019050919050565b600080fd5b600061294161293c846128fd565b6128e2565b9050808382526020820190506020840283018581111561296457612963612929565b5b835b8181101561298d578061297988826125ce565b845260208401935050602081019050612966565b5050509392505050565b600082601f8301126129ac576129ab61287d565b5b81356129bc84826020860161292e565b91505092915050565b600080fd5b600067ffffffffffffffff8211156129e5576129e4612882565b5b6129ee82612784565b9050602081019050919050565b82818337600083830152505050565b6000612a1d612a18846129ca565b6128e2565b905082815260208101848484011115612a3957612a386129c5565b5b612a448482856129fb565b509392505050565b600082601f830112612a6157612a6061287d565b5b8135612a71848260208601612a0a565b91505092915050565b600080600080600060a08688031215612a9657612a95612545565b5b6000612aa488828901612598565b9550506020612ab588828901612598565b945050604086013567ffffffffffffffff811115612ad657612ad561254a565b5b612ae288828901612997565b935050606086013567ffffffffffffffff811115612b0357612b0261254a565b5b612b0f88828901612997565b925050608086013567ffffffffffffffff811115612b3057612b2f61254a565b5b612b3c88828901612a4c565b9150509295509295909350565b60008060408385031215612b6057612b5f612545565b5b6000612b6e85828601612811565b9250506020612b7f85828601612598565b9150509250929050565b600067ffffffffffffffff821115612ba457612ba3612882565b5b602082029050602081019050919050565b6000612bc8612bc384612b89565b6128e2565b90508083825260208201905060208402830185811115612beb57612bea612929565b5b835b81811015612c145780612c008882612598565b845260208401935050602081019050612bed565b5050509392505050565b600082601f830112612c3357612c3261287d565b5b8135612c43848260208601612bb5565b91505092915050565b60008060408385031215612c6357612c62612545565b5b600083013567ffffffffffffffff811115612c8157612c8061254a565b5b612c8d85828601612c1e565b925050602083013567ffffffffffffffff811115612cae57612cad61254a565b5b612cba85828601612997565b9150509250929050565b600081519050919050565b600082825260208201905092915050565b6000819050602082019050919050565b612cf9816125ad565b82525050565b6000612d0b8383612cf0565b60208301905092915050565b6000602082019050919050565b6000612d2f82612cc4565b612d398185612ccf565b9350612d4483612ce0565b8060005b83811015612d75578151612d5c8882612cff565b9750612d6783612d17565b925050600181019050612d48565b5085935050505092915050565b60006020820190508181036000830152612d9c8184612d24565b905092915050565b600067ffffffffffffffff821115612dbf57612dbe612882565b5b612dc882612784565b9050602081019050919050565b6000612de8612de384612da4565b6128e2565b905082815260208101848484011115612e0457612e036129c5565b5b612e0f8482856129fb565b509392505050565b600082601f830112612e2c57612e2b61287d565b5b8135612e3c848260208601612dd5565b91505092915050565b600080600060608486031215612e5e57612e5d612545565b5b6000612e6c86828701612598565b935050602084013567ffffffffffffffff811115612e8d57612e8c61254a565b5b612e9986828701612e17565b9250506040612eaa868287016125ce565b9150509250925092565b600080600060608486031215612ecd57612ecc612545565b5b6000612edb86828701612598565b935050602084013567ffffffffffffffff811115612efc57612efb61254a565b5b612f0886828701612997565b925050604084013567ffffffffffffffff811115612f2957612f2861254a565b5b612f3586828701612997565b9150509250925092565b60008060408385031215612f5657612f55612545565b5b6000612f64858286016125ce565b9250506020612f75858286016125ce565b9150509250929050565b612f88816126d2565b8114612f9357600080fd5b50565b600081359050612fa581612f7f565b92915050565b60008060408385031215612fc257612fc1612545565b5b6000612fd085828601612598565b9250506020612fe185828601612f96565b9150509250929050565b6000806040838503121561300257613001612545565b5b600061301085828601612598565b925050602061302185828601612598565b9150509250929050565b600080600080600060a0868803121561304757613046612545565b5b600061305588828901612598565b955050602061306688828901612598565b9450506040613077888289016125ce565b9350506060613088888289016125ce565b925050608086013567ffffffffffffffff8111156130a9576130a861254a565b5b6130b588828901612a4c565b9150509295509295909350565b6000806000606084860312156130db576130da612545565b5b60006130e986828701612598565b93505060206130fa868287016125ce565b925050604061310b868287016125ce565b9150509250925092565b7f455243313135353a2062616c616e636520717565727920666f7220746865207a60008201527f65726f2061646472657373000000000000000000000000000000000000000000602082015250565b6000613171602b83612740565b915061317c82613115565b604082019050919050565b600060208201905081810360008301526131a081613164565b9050919050565b600081905092915050565b7f697066733a2f2f00000000000000000000000000000000000000000000000000600082015250565b60006131e86007836131a7565b91506131f3826131b2565b600782019050919050565b7f4e487b7100000000000000000000000000000000000000000000000000000000600052602260045260246000fd5b6000600282049050600182168061324557607f821691505b60208210811415613259576132586131fe565b5b50919050565b60008190508160005260206000209050919050565b600081546132818161322d565b61328b81866131a7565b945060018216600081146132a657600181146132b7576132ea565b60ff198316865281860193506132ea565b6132c08561325f565b60005b838110156132e2578154818901526001820191506020810190506132c3565b838801955050505b50505092915050565b60006132fe826131db565b915061330a8284613274565b915081905092915050565b7f455243313135353a207472616e736665722063616c6c6572206973206e6f742060008201527f6f776e6572206e6f7220617070726f7665640000000000000000000000000000602082015250565b6000613371603283612740565b915061337c82613315565b604082019050919050565b600060208201905081810360008301526133a081613364565b9050919050565b7f416363657373436f6e74726f6c3a2063616e206f6e6c792072656e6f756e636560008201527f20726f6c657320666f722073656c660000000000000000000000000000000000602082015250565b6000613403602f83612740565b915061340e826133a7565b604082019050919050565b60006020820190508181036000830152613432816133f6565b9050919050565b7f455243313135353a206163636f756e747320616e6420696473206c656e67746860008201527f206d69736d617463680000000000000000000000000000000000000000000000602082015250565b6000613495602983612740565b91506134a082613439565b604082019050919050565b600060208201905081810360008301526134c481613488565b9050919050565b7f4e487b7100000000000000000000000000000000000000000000000000000000600052603260045260246000fd5b7f4e487b7100000000000000000000000000000000000000000000000000000000600052601160045260246000fd5b6000613534826125ad565b91507fffffffffffffffffffffffffffffffffffffffffffffffffffffffffffffffff821415613567576135666134fa565b5b600182019050919050565b61357b8161256f565b82525050565b60006060820190506135966000830186613572565b6135a36020830185612623565b6135b06040830184612623565b949350505050565b7f455243313135353a2063616c6c6572206973206e6f74206f776e6572206e6f7260008201527f20617070726f7665640000000000000000000000000000000000000000000000602082015250565b6000613614602983612740565b915061361f826135b8565b604082019050919050565b6000602082019050818103600083015261364381613607565b9050919050565b7f455243313135353a2073657474696e6720617070726f76616c2073746174757360008201527f20666f722073656c660000000000000000000000000000000000000000000000602082015250565b60006136a6602983612740565b91506136b18261364a565b604082019050919050565b600060208201905081810360008301526136d581613699565b9050919050565b7f455243313135353a2069647320616e6420616d6f756e7473206c656e6774682060008201527f6d69736d61746368000000000000000000000000000000000000000000000000602082015250565b6000613738602883612740565b9150613743826136dc565b604082019050919050565b600060208201905081810360008301526137678161372b565b9050919050565b7f455243313135353a207472616e7366657220746f20746865207a65726f20616460008201527f6472657373000000000000000000000000000000000000000000000000000000602082015250565b60006137ca602583612740565b91506137d58261376e565b604082019050919050565b600060208201905081810360008301526137f9816137bd565b9050919050565b7f455243313135353a20696e73756666696369656e742062616c616e636520666f60008201527f72207472616e7366657200000000000000000000000000000000000000000000602082015250565b600061385c602a83612740565b915061386782613800565b604082019050919050565b6000602082019050818103600083015261388b8161384f565b9050919050565b600061389d826125ad565b91506138a8836125ad565b9250827fffffffffffffffffffffffffffffffffffffffffffffffffffffffffffffffff038211156138dd576138dc6134fa565b5b828201905092915050565b600060408201905081810360008301526139028185612d24565b905081810360208301526139168184612d24565b90509392505050565b7f416363657373436f6e74726f6c3a206163636f756e7420000000000000000000600082015250565b60006139556017836131a7565b91506139608261391f565b601782019050919050565b600061397682612735565b61398081856131a7565b9350613990818560208601612751565b80840191505092915050565b7f206973206d697373696e6720726f6c6520000000000000000000000000000000600082015250565b60006139d26011836131a7565b91506139dd8261399c565b601182019050919050565b60006139f382613948565b91506139ff828561396b565b9150613a0a826139c5565b9150613a16828461396b565b91508190509392505050565b7f455243313135353a206d696e7420746f20746865207a65726f2061646472657360008201527f7300000000000000000000000000000000000000000000000000000000000000602082015250565b6000613a7e602183612740565b9150613a8982613a22565b604082019050919050565b60006020820190508181036000830152613aad81613a71565b9050919050565b6000604082019050613ac96000830185612623565b613ad66020830184612623565b9392505050565b7f455243313135353a206275726e2066726f6d20746865207a65726f206164647260008201527f6573730000000000000000000000000000000000000000000000000000000000602082015250565b6000613b39602383612740565b9150613b4482613add565b604082019050919050565b60006020820190508181036000830152613b6881613b2c565b9050919050565b7f455243313135353a206275726e20616d6f756e7420657863656564732062616c60008201527f616e636500000000000000000000000000000000000000000000000000000000602082015250565b6000613bcb602483612740565b9150613bd682613b6f565b604082019050919050565b60006020820190508181036000830152613bfa81613bbe565b9050919050565b600081519050919050565b600082825260208201905092915050565b6000613c2882613c01565b613c328185613c0c565b9350613c42818560208601612751565b613c4b81612784565b840191505092915050565b600060a082019050613c6b6000830188613572565b613c786020830187613572565b8181036040830152613c8a8186612d24565b90508181036060830152613c9e8185612d24565b90508181036080830152613cb28184613c1d565b90509695505050505050565b600081519050613ccd81612679565b92915050565b600060208284031215613ce957613ce8612545565b5b6000613cf784828501613cbe565b91505092915050565b60008160e01c9050919050565b600060033d1115613d2c5760046000803e613d29600051613d00565b90505b90565b600060443d1015613d3f57613dc2565b613d4761253b565b60043d036004823e80513d602482011167ffffffffffffffff82111715613d6f575050613dc2565b808201805167ffffffffffffffff811115613d8d5750505050613dc2565b80602083010160043d038501811115613daa575050505050613dc2565b613db9826020018501866128b1565b82955050505050505b90565b7f455243313135353a207472616e7366657220746f206e6f6e204552433131353560008201527f526563656976657220696d706c656d656e746572000000000000000000000000602082015250565b6000613e21603483612740565b9150613e2c82613dc5565b604082019050919050565b60006020820190508181036000830152613e5081613e14565b9050919050565b7f455243313135353a204552433131353552656365697665722072656a6563746560008201527f6420746f6b656e73000000000000000000000000000000000000000000000000602082015250565b6000613eb3602883612740565b9150613ebe82613e57565b604082019050919050565b60006020820190508181036000830152613ee281613ea6565b9050919050565b6000613ef4826125ad565b9150613eff836125ad565b9250817fffffffffffffffffffffffffffffffffffffffffffffffffffffffffffffffff0483118215151615613f3857613f376134fa565b5b828202905092915050565b6000613f4e826125ad565b91506000821415613f6257613f616134fa565b5b600182039050919050565b7f537472696e67733a20686578206c656e67746820696e73756666696369656e74600082015250565b6000613fa3602083612740565b9150613fae82613f6d565b602082019050919050565b60006020820190508181036000830152613fd281613f96565b9050919050565b600060a082019050613fee6000830188613572565b613ffb6020830187613572565b6140086040830186612623565b6140156060830185612623565b81810360808301526140278184613c1d565b9050969550505050505056fea264697066735822122093d812d456be655db273ff1c00ec3c45371417072d6874e5eb1c50807cc5bb3964736f6c63430008090033",
  "linkReferences": {},
  "deployedLinkReferences": {}
}