{
 "_format": "hh-sol-artifact-1",
 "contractName": "ProjectFactory",
 "sourceName": "contracts/company/ProjectFactory.sol",
 "abi": [
  {
   "inputs": [
    {
     "internalType": "address",
     "name": "_fundingTokenContract",
     "type": "address"
    },
    {
     "internalType": "address",
     "name": "_rewardContract",
     "type": "address"
    }
   ],
   "stateMutability": "nonpayable",
   "type": "constructor"
  },
  {
   "anonymous": false,
   "inputs": [
    {
     "components": [
      {
       "internalType": "bytes32",
       "name": "digest",
       "type": "bytes32"
      },
      {
       "internalType": "uint8",
       "name": "hashFunction",
       "type": "uint8"
      },
      {
       "internalType": "uint8",
       "name": "size",
       "type": "uint8"
      }
     ],
     "indexed": false,
     "internalType": "struct IPFS.Multihash",
     "name": "frontendHash",
     "type": "tuple"
    }
   ],
   "name": "FrontendUpdated",
   "type": "event"
  },
  {
   "anonymous": false,
   "inputs": [
    {
     "indexed": true,
     "internalType": "address",
     "name": "previousOwner",
     "type": "address"
    },
    {
     "indexed": true,
     "internalType": "address",
     "name": "newOwner",
     "type": "address"
    }
   ],
   "name": "OwnershipTransferred",
   "type": "event"
  },
  {
   "anonymous": false,
   "inputs": [
    {
     "indexed": true,
     "internalType": "address",
     "name": "creator",
     "type": "address"
    },
    {
     "indexed": true,
     "internalType": "address",
     "name": "project",
     "type": "address"
    },
    {
     "components": [
      {
       "internalType": "bytes32",
       "name": "digest",
       "type": "bytes32"
      },
      {
       "internalType": "uint8",
       "name": "hashFunction",
       "type": "uint8"
      },
      {
       "internalType": "uint8",
       "name": "size",
       "type": "uint8"
      }
     ],
     "indexed": false,
     "internalType": "struct IPFS.Multihash[]",
     "name": "projectMedia",
     "type": "tuple[]"
    },
    {
     "components": [
      {
       "internalType": "bytes32",
       "name": "digest",
       "type": "bytes32"
      },
      {
       "internalType": "uint8",
       "name": "hashFunction",
       "type": "uint8"
      },
      {
       "internalType": "uint8",
       "name": "size",
       "type": "uint8"
      },
      {
       "internalType": "uint256",
       "name": "investment",
       "type": "uint256"
      },
      {
       "internalType": "uint256",
       "name": "supply",
       "type": "uint256"
      }
     ],
     "indexed": false,
     "internalType": "struct IPFS.RewardTier[]",
     "name": "rewardTiers",
     "type": "tuple[]"
    },
    {
     "components": [
      {
       "internalType": "bytes32",
       "name": "digest",
       "type": "bytes32"
      },
      {
       "internalType": "uint8",
       "name": "hashFunction",
       "type": "uint8"
      },
      {
       "internalType": "uint8",
       "name": "size",
       "type": "uint8"
      }
     ],
     "indexed": false,
     "internalType": "struct IPFS.Multihash",
     "name": "survey",
     "type": "tuple"
    }
   ],
   "name": "ProjectCreated",
   "type": "event"
  },
  {
   "inputs": [],
   "name": "admin",
   "outputs": [
    {
     "internalType": "address payable",
     "name": "",
     "type": "address"
    }
   ],
   "stateMutability": "view",
   "type": "function"
  },
  {
   "inputs": [
    {
     "internalType": "uint256",
     "name": "fundRaisingDeadline",
     "type": "uint256"
    },
    {
     "components": [
      {
       "internalType": "bytes32",
       "name": "digest",
       "type": "bytes32"
      },
      {
       "internalType": "uint8",
       "name": "hashFunction",
       "type": "uint8"
      },
      {
       "internalType": "uint8",
       "name": "size",
       "type": "uint8"
      }
     ],
     "internalType": "struct IPFS.Multihash[]",
     "name": "_projectMedia",
     "type": "tuple[]"
    },
    {
     "components": [
      {
       "internalType": "bytes32",
       "name": "digest",
       "type": "bytes32"
      },
      {
       "internalType": "uint8",
       "name": "hashFunction",
       "type": "uint8"
      },
      {
       "internalType": "uint8",
       "name": "size",
       "type": "uint8"
      },
      {
       "internalType": "uint256",
       "name": "investment",
       "type": "uint256"
      },
      {
       "internalType": "uint256",
       "name": "supply",
       "type": "uint256"
      }
     ],
     "internalType": "struct IPFS.RewardTier[]",
     "name": "_rewardTiers",
     "type": "tuple[]"
    },
    {
     "components": [
      {
       "internalType": "bytes32",
       "name": "digest",
       "type": "bytes32"
      },
      {
       "internalType": "uint8",
       "name": "hashFunction",
       "type": "uint8"
      },
      {
       "internalType": "uint8",
       "name": "size",
       "type": "uint8"
      }
     ],
     "internalType": "struct IPFS.Multihash",
     "name": "survey",
     "type": "tuple"
    }
   ],
   "name": "createProject",
   "outputs": [
    {
     "internalType": "address",
     "name": "",
     "type": "address"
    }
   ],
   "stateMutability": "nonpayable",
   "type": "function"
  },
  {
   "inputs": [],
   "name": "owner",
   "outputs": [
    {
     "internalType": "address",
     "name": "",
     "type": "address"
    }
   ],
   "stateMutability": "view",
   "type": "function"
  },
  {
   "inputs": [],
   "name": "projectImplementation",
   "outputs": [
    {
     "internalType": "address",
     "name": "",
     "type": "address"
    }
   ],
   "stateMutability": "view",
   "type": "function"
  },
  {
   "inputs": [],
   "name": "projectImplementationVersion",
   "outputs": [
    {
     "internalType": "uint256",
     "name": "",
     "type": "uint256"
    }
   ],
   "stateMutability": "view",
   "type": "function"
  },
  {
   "inputs": [
    {
     "internalType": "address",
     "name": "",
     "type": "address"
    }
   ],
   "name": "projectsVersions",
   "outputs": [
    {
     "internalType": "uint256",
     "name": "",
     "type": "uint256"
    }
   ],
   "stateMutability": "view",
   "type": "function"
  },
  {
   "inputs": [],
   "name": "renounceOwnership",
   "outputs": [],
   "stateMutability": "nonpayable",
   "type": "function"
  },
  {
   "inputs": [
    {
     "components": [
      {
       "internalType": "bytes32",
       "name": "digest",
       "type": "bytes32"
      },
      {
       "internalType": "uint8",
       "name": "hashFunction",
       "type": "uint8"
      },
      {
       "internalType": "uint8",
       "name": "size",
       "type": "uint8"
      }
     ],
     "internalType": "struct IPFS.Multihash",
     "name": "_frontendHash",
     "type": "tuple"
    }
   ],
   "name": "setFrontendHash",
   "outputs": [],
   "stateMutability": "nonpayable",
   "type": "function"
  },
  {
   "inputs": [
    {
     "internalType": "address",
     "name": "_projectImplementation",
     "type": "address"
    }
   ],
   "name": "setProjectImplementationAddress",
   "outputs": [],
   "stateMutability": "nonpayable",
   "type": "function"
  },
  {
   "inputs": [
    {
     "internalType": "address",
     "name": "newOwner",
     "type": "address"
    }
   ],
   "name": "transferOwnership",
   "outputs": [],
   "stateMutability": "nonpayable",
   "type": "function"
  }
 ],
 "bytecode": "0x60e06040523480156200001157600080fd5b50604051620049d5380380620049d58339818101604052810190620000379190620002b3565b620000576200004b6200016f60201b60201c565b6200017760201b60201c565b60405162000065906200023b565b604051809103906000f08015801562000082573d6000803e3d6000fd5b50600360006101000a81548173ffffffffffffffffffffffffffffffffffffffff021916908373ffffffffffffffffffffffffffffffffffffffff16021790555060016004819055503373ffffffffffffffffffffffffffffffffffffffff1660808173ffffffffffffffffffffffffffffffffffffffff16815250508173ffffffffffffffffffffffffffffffffffffffff1660a08173ffffffffffffffffffffffffffffffffffffffff16815250508073ffffffffffffffffffffffffffffffffffffffff1660c08173ffffffffffffffffffffffffffffffffffffffff16815250505050620002fa565b600033905090565b60008060009054906101000a900473ffffffffffffffffffffffffffffffffffffffff169050816000806101000a81548173ffffffffffffffffffffffffffffffffffffffff021916908373ffffffffffffffffffffffffffffffffffffffff1602179055508173ffffffffffffffffffffffffffffffffffffffff168173ffffffffffffffffffffffffffffffffffffffff167f8be0079c531659141344cd1fd0a4f28419497f9722a3daafe3b4186f6b6457e060405160405180910390a35050565b61326a806200176b83390190565b600080fd5b600073ffffffffffffffffffffffffffffffffffffffff82169050919050565b60006200027b826200024e565b9050919050565b6200028d816200026e565b81146200029957600080fd5b50565b600081519050620002ad8162000282565b92915050565b60008060408385031215620002cd57620002cc62000249565b5b6000620002dd858286016200029c565b9250506020620002f0858286016200029c565b9150509250929050565b60805160a05160c05161143d6200032e6000396000505060006103990152600081816103740152610672015261143d6000f3fe608060405234801561001057600080fd5b506004361061009e5760003560e01c8063715018a611610066578063715018a61461015b5780638da5cb5b14610165578063f2fde38b14610183578063f851a4401461019f578063f953d8d7146101bd5761009e565b8063020e9a93146100a357806316f77d15146100c157806317699a6b146100df5780632d8c39dd1461010f57806348cfb0eb1461012b575b600080fd5b6100ab6101d9565b6040516100b8919061094e565b60405180910390f35b6100c96101ff565b6040516100d69190610982565b60405180910390f35b6100f960048036038101906100f491906109dd565b610205565b6040516101069190610982565b60405180910390f35b61012960048036038101906101249190610b6e565b61021d565b005b61014560048036038101906101409190610de3565b610325565b604051610152919061094e565b60405180910390f35b6101636104c7565b005b61016d61054f565b60405161017a919061094e565b60405180910390f35b61019d600480360381019061019891906109dd565b610578565b005b6101a7610670565b6040516101b49190610ea3565b60405180910390f35b6101d760048036038101906101d291906109dd565b610694565b005b600360009054906101000a900473ffffffffffffffffffffffffffffffffffffffff1681565b60045481565b60056020528060005260406000206000915090505481565b61022561076c565b73ffffffffffffffffffffffffffffffffffffffff1661024361054f565b73ffffffffffffffffffffffffffffffffffffffff1614610299576040517f08c379a000000000000000000000000000000000000000000000000000000000815260040161029090610f1b565b60405180910390fd5b8060016000820151816000015560208201518160010160006101000a81548160ff021916908360ff16021790555060408201518160010160016101000a81548160ff021916908360ff1602179055509050507f87ac1c7a61670ab1705a0db125ac0323ce4b90c7c84af7553545a1ddb018ea0c8160405161031a9190610f9b565b60405180910390a150565b600080610353600360009054906101000a900473ffffffffffffffffffffffffffffffffffffffff16610774565b90508073ffffffffffffffffffffffffffffffffffffffff166375fa9658337f0000000000000000000000000000000000000000000000000000000000000000898989897f00000000000000000000000000000000000000000000000000000000000000006040518863ffffffff1660e01b81526004016103da97969594939291906111cd565b600060405180830381600087803b1580156103f457600080fd5b505af1158015610408573d6000803e3d6000fd5b50505050600454600560008373ffffffffffffffffffffffffffffffffffffffff1673ffffffffffffffffffffffffffffffffffffffff168152602001908152602001600020819055508073ffffffffffffffffffffffffffffffffffffffff163373ffffffffffffffffffffffffffffffffffffffff167f79f72ffcb6295047001d67e2d9261fda3cefb2194b85ef644308c92638806eb18787876040516104b39392919061124c565b60405180910390a380915050949350505050565b6104cf61076c565b73ffffffffffffffffffffffffffffffffffffffff166104ed61054f565b73ffffffffffffffffffffffffffffffffffffffff1614610543576040517f08c379a000000000000000000000000000000000000000000000000000000000815260040161053a90610f1b565b60405180910390fd5b61054d6000610849565b565b60008060009054906101000a900473ffffffffffffffffffffffffffffffffffffffff16905090565b61058061076c565b73ffffffffffffffffffffffffffffffffffffffff1661059e61054f565b73ffffffffffffffffffffffffffffffffffffffff16146105f4576040517f08c379a00000000000000000000000000000000000000000000000000000000081526004016105eb90610f1b565b60405180910390fd5b600073ffffffffffffffffffffffffffffffffffffffff168173ffffffffffffffffffffffffffffffffffffffff161415610664576040517f08c379a000000000000000000000000000000000000000000000000000000000815260040161065b90611303565b60405180910390fd5b61066d81610849565b50565b7f000000000000000000000000000000000000000000000000000000000000000081565b61069c61076c565b73ffffffffffffffffffffffffffffffffffffffff166106ba61054f565b73ffffffffffffffffffffffffffffffffffffffff1614610710576040517f08c379a000000000000000000000000000000000000000000000000000000000815260040161070790610f1b565b60405180910390fd5b80600360006101000a81548173ffffffffffffffffffffffffffffffffffffffff021916908373ffffffffffffffffffffffffffffffffffffffff1602179055506004600081548092919061076490611352565b919050555050565b600033905090565b60006040517f3d602d80600a3d3981f3363d3d373d3d3d363d7300000000000000000000000081528260601b60148201527f5af43d82803e903d91602b57fd5bf3000000000000000000000000000000000060288201526037816000f0915050600073ffffffffffffffffffffffffffffffffffffffff168173ffffffffffffffffffffffffffffffffffffffff161415610844576040517f08c379a000000000000000000000000000000000000000000000000000000000815260040161083b906113e7565b60405180910390fd5b919050565b60008060009054906101000a900473ffffffffffffffffffffffffffffffffffffffff169050816000806101000a81548173ffffffffffffffffffffffffffffffffffffffff021916908373ffffffffffffffffffffffffffffffffffffffff1602179055508173ffffffffffffffffffffffffffffffffffffffff168173ffffffffffffffffffffffffffffffffffffffff167f8be0079c531659141344cd1fd0a4f28419497f9722a3daafe3b4186f6b6457e060405160405180910390a35050565b600073ffffffffffffffffffffffffffffffffffffffff82169050919050565b60006109388261090d565b9050919050565b6109488161092d565b82525050565b6000602082019050610963600083018461093f565b92915050565b6000819050919050565b61097c81610969565b82525050565b60006020820190506109976000830184610973565b92915050565b6000604051905090565b600080fd5b600080fd5b6109ba8161092d565b81146109c557600080fd5b50565b6000813590506109d7816109b1565b92915050565b6000602082840312156109f3576109f26109a7565b5b6000610a01848285016109c8565b91505092915050565b600080fd5b6000601f19601f8301169050919050565b7f4e487b7100000000000000000000000000000000000000000000000000000000600052604160045260246000fd5b610a5882610a0f565b810181811067ffffffffffffffff82111715610a7757610a76610a20565b5b80604052505050565b6000610a8a61099d565b9050610a968282610a4f565b919050565b6000819050919050565b610aae81610a9b565b8114610ab957600080fd5b50565b600081359050610acb81610aa5565b92915050565b600060ff82169050919050565b610ae781610ad1565b8114610af257600080fd5b50565b600081359050610b0481610ade565b92915050565b600060608284031215610b2057610b1f610a0a565b5b610b2a6060610a80565b90506000610b3a84828501610abc565b6000830152506020610b4e84828501610af5565b6020830152506040610b6284828501610af5565b60408301525092915050565b600060608284031215610b8457610b836109a7565b5b6000610b9284828501610b0a565b91505092915050565b610ba481610969565b8114610baf57600080fd5b50565b600081359050610bc181610b9b565b92915050565b600080fd5b600067ffffffffffffffff821115610be757610be6610a20565b5b602082029050602081019050919050565b600080fd5b6000610c10610c0b84610bcc565b610a80565b90508083825260208201905060608402830185811115610c3357610c32610bf8565b5b835b81811015610c5c5780610c488882610b0a565b845260208401935050606081019050610c35565b5050509392505050565b600082601f830112610c7b57610c7a610bc7565b5b8135610c8b848260208601610bfd565b91505092915050565b600067ffffffffffffffff821115610caf57610cae610a20565b5b602082029050602081019050919050565b600060a08284031215610cd657610cd5610a0a565b5b610ce060a0610a80565b90506000610cf084828501610abc565b6000830152506020610d0484828501610af5565b6020830152506040610d1884828501610af5565b6040830152506060610d2c84828501610bb2565b6060830152506080610d4084828501610bb2565b60808301525092915050565b6000610d5f610d5a84610c94565b610a80565b90508083825260208201905060a08402830185811115610d8257610d81610bf8565b5b835b81811015610dab5780610d978882610cc0565b84526020840193505060a081019050610d84565b5050509392505050565b600082601f830112610dca57610dc9610bc7565b5b8135610dda848260208601610d4c565b91505092915050565b60008060008060c08587031215610dfd57610dfc6109a7565b5b6000610e0b87828801610bb2565b945050602085013567ffffffffffffffff811115610e2c57610e2b6109ac565b5b610e3887828801610c66565b935050604085013567ffffffffffffffff811115610e5957610e586109ac565b5b610e6587828801610db5565b9250506060610e7687828801610b0a565b91505092959194509250565b6000610e8d8261090d565b9050919050565b610e9d81610e82565b82525050565b6000602082019050610eb86000830184610e94565b92915050565b600082825260208201905092915050565b7f4f776e61626c653a2063616c6c6572206973206e6f7420746865206f776e6572600082015250565b6000610f05602083610ebe565b9150610f1082610ecf565b602082019050919050565b60006020820190508181036000830152610f3481610ef8565b9050919050565b610f4481610a9b565b82525050565b610f5381610ad1565b82525050565b606082016000820151610f6f6000850182610f3b565b506020820151610f826020850182610f4a565b506040820151610f956040850182610f4a565b50505050565b6000606082019050610fb06000830184610f59565b92915050565b600081519050919050565b600082825260208201905092915050565b6000819050602082019050919050565b606082016000820151610ff86000850182610f3b565b50602082015161100b6020850182610f4a565b50604082015161101e6040850182610f4a565b50505050565b60006110308383610fe2565b60608301905092915050565b6000602082019050919050565b600061105482610fb6565b61105e8185610fc1565b935061106983610fd2565b8060005b8381101561109a5781516110818882611024565b975061108c8361103c565b92505060018101905061106d565b5085935050505092915050565b600081519050919050565b600082825260208201905092915050565b6000819050602082019050919050565b6110dc81610969565b82525050565b60a0820160008201516110f86000850182610f3b565b50602082015161110b6020850182610f4a565b50604082015161111e6040850182610f4a565b50606082015161113160608501826110d3565b50608082015161114460808501826110d3565b50505050565b600061115683836110e2565b60a08301905092915050565b6000602082019050919050565b600061117a826110a7565b61118481856110b2565b935061118f836110c3565b8060005b838110156111c05781516111a7888261114a565b97506111b283611162565b925050600181019050611193565b5085935050505092915050565b6000610120820190506111e3600083018a610e94565b6111f06020830189610e94565b6111fd6040830188610973565b818103606083015261120f8187611049565b90508181036080830152611223818661116f565b905061123260a0830185610f59565b61124061010083018461093f565b98975050505050505050565b600060a08201905081810360008301526112668186611049565b9050818103602083015261127a818561116f565b90506112896040830184610f59565b949350505050565b7f4f776e61626c653a206e6577206f776e657220697320746865207a65726f206160008201527f6464726573730000000000000000000000000000000000000000000000000000602082015250565b60006112ed602683610ebe565b91506112f882611291565b604082019050919050565b6000602082019050818103600083015261131c816112e0565b9050919050565b7f4e487b7100000000000000000000000000000000000000000000000000000000600052601160045260246000fd5b600061135d82610969565b91507fffffffffffffffffffffffffffffffffffffffffffffffffffffffffffffffff8214156113905761138f611323565b5b600182019050919050565b7f455243313136373a20637265617465206661696c656400000000000000000000600082015250565b60006113d1601683610ebe565b91506113dc8261139b565b602082019050919050565b60006020820190508181036000830152611400816113c4565b905091905056fea26469706673582212204c455c14d5bcd80099def33d7eb9ba8fd0c0e604184ea2b1e666c2db4100f07864736f6c63430008090033608060405234801561001057600080fd5b506001600281905550613242806100286000396000f3fe608060405234801561001057600080fd5b50600436106101a95760003560e01c8063785e9967116100f9578063b8b1ccc811610097578063d547741f11610071578063d547741f146104c4578063ea8a1af0146104e0578063fd23c6e5146104ea578063ff20111414610506576101a9565b8063b8b1ccc814610446578063cbc9130e14610476578063cfab78b314610494576101a9565b806391d14854116100d357806391d14854146103bc578063a217fddf146103ec578063a54044f81461040a578063b6e6096d14610428576101a9565b8063785e9967146103625780638691c575146103805780638aeda25a1461039e576101a9565b80632e1a7d4d116101665780633b129a56116101405780633b129a56146102d85780636f901318146102f6578063748807ab1461032857806375fa965814610346576101a9565b80632e1a7d4d146102845780632f2ff15d146102a057806336568abe146102bc576101a9565b806301ffc9a7146101ae57806307651630146101de5780631ec43c94146101fe578063248a9ca31461021c578063268f11531461024c5780632afcf48014610268575b600080fd5b6101c860048036038101906101c39190611ea9565b61053a565b6040516101d59190611ef1565b60405180910390f35b6101e66105b4565b6040516101f593929190611f41565b60405180910390f35b6102066105e6565b6040516102139190611f91565b60405180910390f35b61023660048036038101906102319190611fd8565b6105f1565b6040516102439190612005565b60405180910390f35b61026660048036038101906102619190612045565b610611565b005b610282600480360381019061027d919061209e565b6106aa565b005b61029e6004803603810190610299919061209e565b6108b0565b005b6102ba60048036038101906102b59190612129565b610b05565b005b6102d660048036038101906102d19190612129565b610b2e565b005b6102e0610bb1565b6040516102ed9190612005565b60405180910390f35b610310600480360381019061030b919061209e565b610bd5565b60405161031f93929190611f41565b60405180910390f35b610330610c29565b60405161033d91906121e0565b60405180910390f35b610360600480360381019061035b9190612318565b610c3c565b005b61036a610f60565b6040516103779190611f91565b60405180910390f35b610388610f6b565b6040516103959190611f91565b60405180910390f35b6103a6610f70565b6040516103b39190612005565b60405180910390f35b6103d660048036038101906103d19190612129565b610f94565b6040516103e39190611ef1565b60405180910390f35b6103f4610fff565b6040516104019190612005565b60405180910390f35b610412611006565b60405161041f919061240b565b60405180910390f35b61043061102c565b60405161043d9190611f91565b60405180910390f35b610460600480360381019061045b919061209e565b611031565b60405161046d9190611f91565b60405180910390f35b61047e611055565b60405161048b9190611f91565b60405180910390f35b6104ae60048036038101906104a9919061209e565b61105b565b6040516104bb9190611ef1565b60405180910390f35b6104de60048036038101906104d99190612129565b6110d0565b005b6104e86110f9565b005b61050460048036038101906104ff919061209e565b611208565b005b610520600480360381019061051b919061209e565b611453565b604051610531959493929190612426565b60405180910390f35b60007f7965db0b000000000000000000000000000000000000000000000000000000007bffffffffffffffffffffffffffffffffffffffffffffffffffffffff1916827bffffffffffffffffffffffffffffffffffffffffffffffffffffffff191614806105ad57506105ac826114b3565b5b9050919050565b600a8060000154908060010160009054906101000a900460ff16908060010160019054906101000a900460ff16905083565b666a94d74f43000081565b600060016000838152602001908152602001600020600101549050919050565b7fc10c77be35aff266144ed64c26a1fa104bae2f284ae99ac4a34203454704a18561063c8133610f94565b61064557600080fd5b81600760006101000a81548160ff0219169083600581111561066a57610669612169565b5b02179055507fc611707cb6f0fbd4a8d4506ac0cf5c596e370afd44523fd4ac17353f941a70808260405161069e91906121e0565b60405180910390a15050565b6106d47f828634d95e775031b9ff576b159a8509d3053581a8c9c4d7d86899e0afcd882f33610f94565b15801561070857506107067fc10c77be35aff266144ed64c26a1fa104bae2f284ae99ac4a34203454704a18533610f94565b155b61071157600080fd5b600280600581111561072657610725612169565b5b600760009054906101000a900460ff16600581111561074857610747612169565b5b1461075257600080fd5b600280541415610797576040517f08c379a000000000000000000000000000000000000000000000000000000000815260040161078e906124d6565b60405180910390fd5b600280819055506107a661151d565b156107b057600080fd5b6000600883815481106107c6576107c56124f6565b5b9060005260206000209060040201600201549050610829333083600560009054906101000a900473ffffffffffffffffffffffffffffffffffffffff1673ffffffffffffffffffffffffffffffffffffffff166115b6909392919063ffffffff16565b60016006848154811061083f5761083e6124f6565b5b9060005260206000200160008282546108589190612554565b92505081905550823373ffffffffffffffffffffffffffffffffffffffff167fc3f75dfc78f6efac88ad5abb5e606276b903647d97b2a62a1ef89840a658bbc360405160405180910390a35060016002819055505050565b7f828634d95e775031b9ff576b159a8509d3053581a8c9c4d7d86899e0afcd882f6108db8133610f94565b6108e457600080fd5b600280541415610929576040517f08c379a0000000000000000000000000000000000000000000000000000000008152600401610920906124d6565b60405180910390fd5b6002808190555061093861151d565b610977576040517f08c379a000000000000000000000000000000000000000000000000000000000815260040161096e906125f6565b60405180910390fd5b6109808261105b565b6109bf576040517f08c379a00000000000000000000000000000000000000000000000000000000081526004016109b690612662565b60405180910390fd5b60004790506000670de0b6b3a7640000666a94d74f430000836109e29190612682565b6109ec919061270b565b9050610a5d600360009054906101000a900473ffffffffffffffffffffffffffffffffffffffff1682600560009054906101000a900473ffffffffffffffffffffffffffffffffffffffff1673ffffffffffffffffffffffffffffffffffffffff1661163f9092919063ffffffff16565b610ab5338284610a6d919061273c565b600560009054906101000a900473ffffffffffffffffffffffffffffffffffffffff1673ffffffffffffffffffffffffffffffffffffffff1661163f9092919063ffffffff16565b610abf60036116c5565b7fc611707cb6f0fbd4a8d4506ac0cf5c596e370afd44523fd4ac17353f941a70806003604051610aef91906121e0565b60405180910390a1505060016002819055505050565b610b0e826105f1565b610b1f81610b1a611729565b611731565b610b2983836117ce565b505050565b610b36611729565b73ffffffffffffffffffffffffffffffffffffffff168173ffffffffffffffffffffffffffffffffffffffff1614610ba3576040517f08c379a0000000000000000000000000000000000000000000000000000000008152600401610b9a906127e2565b60405180910390fd5b610bad82826118ae565b5050565b7fc10c77be35aff266144ed64c26a1fa104bae2f284ae99ac4a34203454704a18581565b60098181548110610be557600080fd5b90600052602060002090600202016000915090508060000154908060010160009054906101000a900460ff16908060010160019054906101000a900460ff16905083565b600760009054906101000a900460ff1681565b600060019054906101000a900460ff1680610c62575060008054906101000a900460ff16155b610ca1576040517f08c379a0000000000000000000000000000000000000000000000000000000008152600401610c9890612874565b60405180910390fd5b60008060019054906101000a900460ff161590508015610cf1576001600060016101000a81548160ff02191690831515021790555060016000806101000a81548160ff0219169083151502179055505b8760048190555082600a8181610d079190612ab1565b90505060005b87879050811015610d88576004811015610d74576009888883818110610d3657610d356124f6565b5b90506060020190806001815401808255809150506001900390600052602060002090600202016000909190919091508181610d719190612ab1565b50505b600181610d819190612554565b9050610d0d565b5060005b85859050811015610e31576006811015610e1d576008868683818110610db557610db46124f6565b5b905060a0020190806001815401808255809150506001900390600052602060002090600402016000909190919091508181610df09190612bcd565b50506006600090806001815401808255809150506001900390600052602060002001600090919091909150555b600181610e2a9190612554565b9050610d8c565b506000600760006101000a81548160ff02191690836005811115610e5857610e57612169565b5b021790555081600560006101000a81548173ffffffffffffffffffffffffffffffffffffffff021916908373ffffffffffffffffffffffffffffffffffffffff160217905550610ec87f828634d95e775031b9ff576b159a8509d3053581a8c9c4d7d86899e0afcd882f8b611990565b610ef27fc10c77be35aff266144ed64c26a1fa104bae2f284ae99ac4a34203454704a1858a611990565b88600360006101000a81548173ffffffffffffffffffffffffffffffffffffffff021916908373ffffffffffffffffffffffffffffffffffffffff1602179055508015610f545760008060016101000a81548160ff0219169083151502179055505b50505050505050505050565b66470de4df82000081565b600481565b7f828634d95e775031b9ff576b159a8509d3053581a8c9c4d7d86899e0afcd882f81565b60006001600084815260200190815260200160002060000160008373ffffffffffffffffffffffffffffffffffffffff1673ffffffffffffffffffffffffffffffffffffffff16815260200190815260200160002060009054906101000a900460ff16905092915050565b6000801b81565b600360009054906101000a900473ffffffffffffffffffffffffffffffffffffffff1681565b600681565b6006818154811061104157600080fd5b906000526020600020016000915090505481565b60045481565b600060088281548110611071576110706124f6565b5b90600052602060002090600402016003015460088381548110611097576110966124f6565b5b9060005260206000209060040201600201546110b39190612682565b600c60008481526020019081526020016000205410159050919050565b6110d9826105f1565b6110ea816110e5611729565b611731565b6110f483836118ae565b505050565b6000600581111561110d5761110c612169565b5b600760009054906101000a900460ff16600581111561112f5761112e612169565b5b148061116e57506002600581111561114a57611149612169565b5b600760009054906101000a900460ff16600581111561116c5761116b612169565b5b145b61117757600080fd5b6111a17fc10c77be35aff266144ed64c26a1fa104bae2f284ae99ac4a34203454704a18533610f94565b806111d257506111d17f828634d95e775031b9ff576b159a8509d3053581a8c9c4d7d86899e0afcd882f33610f94565b5b6111db57600080fd5b6005600760006101000a81548160ff0219169083600581111561120157611200612169565b5b0217905550565b6112327f828634d95e775031b9ff576b159a8509d3053581a8c9c4d7d86899e0afcd882f33610f94565b15801561126657506112647fc10c77be35aff266144ed64c26a1fa104bae2f284ae99ac4a34203454704a18533610f94565b155b61126f57600080fd5b6002805414156112b4576040517f08c379a00000000000000000000000000000000000000000000000000000000081526004016112ab906124d6565b60405180910390fd5b600280819055506112c361151d565b8061130057506005808111156112dc576112db612169565b5b600760009054906101000a900460ff1660058111156112fe576112fd612169565b5b145b61133f576040517f08c379a000000000000000000000000000000000000000000000000000000000815260040161133690612c27565b60405180910390fd5b60058081111561135257611351612169565b5b600760009054906101000a900460ff16600581111561137457611373612169565b5b146113c3576113828161105b565b156113c2576040517f08c379a00000000000000000000000000000000000000000000000000000000081526004016113b990612cb9565b60405180910390fd5b5b600881815481106113d7576113d66124f6565b5b906000526020600020906004020160020154600c6000838152602001908152602001600020600082825461140b919061273c565b92505081905550600160068281548110611428576114276124f6565b5b906000526020600020016000828254611441919061273c565b92505081905550600160028190555050565b6008818154811061146357600080fd5b90600052602060002090600402016000915090508060000154908060010160009054906101000a900460ff16908060010160019054906101000a900460ff16908060020154908060030154905085565b60007f01ffc9a7000000000000000000000000000000000000000000000000000000007bffffffffffffffffffffffffffffffffffffffffffffffffffffffff1916827bffffffffffffffffffffffffffffffffffffffffffffffffffffffff1916149050919050565b6000806004544211905080801561156757506002600581111561154357611542612169565b5b600760009054906101000a900460ff16600581111561156557611564612169565b5b145b156115af5761157660046116c5565b7fc611707cb6f0fbd4a8d4506ac0cf5c596e370afd44523fd4ac17353f941a708060046040516115a691906121e0565b60405180910390a15b8091505090565b611639846323b872dd60e01b8585856040516024016115d793929190612ce8565b604051602081830303815290604052907bffffffffffffffffffffffffffffffffffffffffffffffffffffffff19166020820180517bffffffffffffffffffffffffffffffffffffffffffffffffffffffff838183161783525050505061199e565b50505050565b6116c08363a9059cbb60e01b848460405160240161165e929190612d1f565b604051602081830303815290604052907bffffffffffffffffffffffffffffffffffffffffffffffffffffffff19166020820180517bffffffffffffffffffffffffffffffffffffffffffffffffffffffff838183161783525050505061199e565b505050565b80600760006101000a81548160ff021916908360058111156116ea576116e9612169565b5b02179055507fc611707cb6f0fbd4a8d4506ac0cf5c596e370afd44523fd4ac17353f941a70808160405161171e91906121e0565b60405180910390a150565b600033905090565b61173b8282610f94565b6117ca576117608173ffffffffffffffffffffffffffffffffffffffff166014611a65565b61176e8360001c6020611a65565b60405160200161177f929190612e5a565b6040516020818303038152906040526040517f08c379a00000000000000000000000000000000000000000000000000000000081526004016117c19190612ede565b60405180910390fd5b5050565b6117d88282610f94565b6118aa57600180600084815260200190815260200160002060000160008373ffffffffffffffffffffffffffffffffffffffff1673ffffffffffffffffffffffffffffffffffffffff16815260200190815260200160002060006101000a81548160ff02191690831515021790555061184f611729565b73ffffffffffffffffffffffffffffffffffffffff168173ffffffffffffffffffffffffffffffffffffffff16837f2f8788117e7eff1d82e926ec794901d17c78024a50270940304540a733656f0d60405160405180910390a45b5050565b6118b88282610f94565b1561198c5760006001600084815260200190815260200160002060000160008373ffffffffffffffffffffffffffffffffffffffff1673ffffffffffffffffffffffffffffffffffffffff16815260200190815260200160002060006101000a81548160ff021916908315150217905550611931611729565b73ffffffffffffffffffffffffffffffffffffffff168173ffffffffffffffffffffffffffffffffffffffff16837ff6391f5c32d9c69d2a47ea670b442974b53935d1edc7fd64eb21e047a839171b60405160405180910390a45b5050565b61199a82826117ce565b5050565b6000611a00826040518060400160405280602081526020017f5361666545524332303a206c6f772d6c6576656c2063616c6c206661696c65648152508573ffffffffffffffffffffffffffffffffffffffff16611ca19092919063ffffffff16565b9050600081511115611a605780806020019051810190611a209190612f2c565b611a5f576040517f08c379a0000000000000000000000000000000000000000000000000000000008152600401611a5690612fcb565b60405180910390fd5b5b505050565b606060006002836002611a789190612682565b611a829190612554565b67ffffffffffffffff811115611a9b57611a9a612feb565b5b6040519080825280601f01601f191660200182016040528015611acd5781602001600182028036833780820191505090505b5090507f300000000000000000000000000000000000000000000000000000000000000081600081518110611b0557611b046124f6565b5b60200101907effffffffffffffffffffffffffffffffffffffffffffffffffffffffffffff1916908160001a9053507f780000000000000000000000000000000000000000000000000000000000000081600181518110611b6957611b686124f6565b5b60200101907effffffffffffffffffffffffffffffffffffffffffffffffffffffffffffff1916908160001a90535060006001846002611ba99190612682565b611bb39190612554565b90505b6001811115611c53577f3031323334353637383961626364656600000000000000000000000000000000600f861660108110611bf557611bf46124f6565b5b1a60f81b828281518110611c0c57611c0b6124f6565b5b60200101907effffffffffffffffffffffffffffffffffffffffffffffffffffffffffffff1916908160001a905350600485901c945080611c4c9061301a565b9050611bb6565b5060008414611c97576040517f08c379a0000000000000000000000000000000000000000000000000000000008152600401611c8e90613090565b60405180910390fd5b8091505092915050565b6060611cb08484600085611cb9565b90509392505050565b606082471015611cfe576040517f08c379a0000000000000000000000000000000000000000000000000000000008152600401611cf590613122565b60405180910390fd5b611d0785611dcd565b611d46576040517f08c379a0000000000000000000000000000000000000000000000000000000008152600401611d3d9061318e565b60405180910390fd5b6000808673ffffffffffffffffffffffffffffffffffffffff168587604051611d6f91906131f5565b60006040518083038185875af1925050503d8060008114611dac576040519150601f19603f3d011682016040523d82523d6000602084013e611db1565b606091505b5091509150611dc1828286611de0565b92505050949350505050565b600080823b905060008111915050919050565b60608315611df057829050611e40565b600083511115611e035782518084602001fd5b816040517f08c379a0000000000000000000000000000000000000000000000000000000008152600401611e379190612ede565b60405180910390fd5b9392505050565b600080fd5b600080fd5b60007fffffffff0000000000000000000000000000000000000000000000000000000082169050919050565b611e8681611e51565b8114611e9157600080fd5b50565b600081359050611ea381611e7d565b92915050565b600060208284031215611ebf57611ebe611e47565b5b6000611ecd84828501611e94565b91505092915050565b60008115159050919050565b611eeb81611ed6565b82525050565b6000602082019050611f066000830184611ee2565b92915050565b6000819050919050565b611f1f81611f0c565b82525050565b600060ff82169050919050565b611f3b81611f25565b82525050565b6000606082019050611f566000830186611f16565b611f636020830185611f32565b611f706040830184611f32565b949350505050565b6000819050919050565b611f8b81611f78565b82525050565b6000602082019050611fa66000830184611f82565b92915050565b611fb581611f0c565b8114611fc057600080fd5b50565b600081359050611fd281611fac565b92915050565b600060208284031215611fee57611fed611e47565b5b6000611ffc84828501611fc3565b91505092915050565b600060208201905061201a6000830184611f16565b92915050565b6006811061202d57600080fd5b50565b60008135905061203f81612020565b92915050565b60006020828403121561205b5761205a611e47565b5b600061206984828501612030565b91505092915050565b61207b81611f78565b811461208657600080fd5b50565b60008135905061209881612072565b92915050565b6000602082840312156120b4576120b3611e47565b5b60006120c284828501612089565b91505092915050565b600073ffffffffffffffffffffffffffffffffffffffff82169050919050565b60006120f6826120cb565b9050919050565b612106816120eb565b811461211157600080fd5b50565b600081359050612123816120fd565b92915050565b600080604083850312156121405761213f611e47565b5b600061214e85828601611fc3565b925050602061215f85828601612114565b9150509250929050565b7f4e487b7100000000000000000000000000000000000000000000000000000000600052602160045260246000fd5b600681106121a9576121a8612169565b5b50565b60008190506121ba82612198565b919050565b60006121ca826121ac565b9050919050565b6121da816121bf565b82525050565b60006020820190506121f560008301846121d1565b92915050565b6000612206826120cb565b9050919050565b612216816121fb565b811461222157600080fd5b50565b6000813590506122338161220d565b92915050565b600080fd5b600080fd5b600080fd5b60008083601f84011261225e5761225d612239565b5b8235905067ffffffffffffffff81111561227b5761227a61223e565b5b60208301915083606082028301111561229757612296612243565b5b9250929050565b60008083601f8401126122b4576122b3612239565b5b8235905067ffffffffffffffff8111156122d1576122d061223e565b5b6020830191508360a08202830111156122ed576122ec612243565b5b9250929050565b600080fd5b60006060828403121561230f5761230e6122f4565b5b81905092915050565b60008060008060008060008060006101208a8c03121561233b5761233a611e47565b5b60006123498c828d01612224565b995050602061235a8c828d01612224565b985050604061236b8c828d01612089565b97505060608a013567ffffffffffffffff81111561238c5761238b611e4c565b5b6123988c828d01612248565b965096505060808a013567ffffffffffffffff8111156123bb576123ba611e4c565b5b6123c78c828d0161229e565b945094505060a06123da8c828d016122f9565b9250506101006123ec8c828d01612114565b9150509295985092959850929598565b612405816121fb565b82525050565b600060208201905061242060008301846123fc565b92915050565b600060a08201905061243b6000830188611f16565b6124486020830187611f32565b6124556040830186611f32565b6124626060830185611f82565b61246f6080830184611f82565b9695505050505050565b600082825260208201905092915050565b7f5265656e7472616e637947756172643a207265656e7472616e742063616c6c00600082015250565b60006124c0601f83612479565b91506124cb8261248a565b602082019050919050565b600060208201905081810360008301526124ef816124b3565b9050919050565b7f4e487b7100000000000000000000000000000000000000000000000000000000600052603260045260246000fd5b7f4e487b7100000000000000000000000000000000000000000000000000000000600052601160045260246000fd5b600061255f82611f78565b915061256a83611f78565b9250827fffffffffffffffffffffffffffffffffffffffffffffffffffffffffffffffff0382111561259f5761259e612525565b5b828201905092915050565b7f46756e64696e67206e6f74206578706972656400000000000000000000000000600082015250565b60006125e0601383612479565b91506125eb826125aa565b602082019050919050565b6000602082019050818103600083015261260f816125d3565b9050919050565b7f46756e64696e6720676f616c206e6f7420726561636865640000000000000000600082015250565b600061264c601883612479565b915061265782612616565b602082019050919050565b6000602082019050818103600083015261267b8161263f565b9050919050565b600061268d82611f78565b915061269883611f78565b9250817fffffffffffffffffffffffffffffffffffffffffffffffffffffffffffffffff04831182151516156126d1576126d0612525565b5b828202905092915050565b7f4e487b7100000000000000000000000000000000000000000000000000000000600052601260045260246000fd5b600061271682611f78565b915061272183611f78565b925082612731576127306126dc565b5b828204905092915050565b600061274782611f78565b915061275283611f78565b92508282101561276557612764612525565b5b828203905092915050565b7f416363657373436f6e74726f6c3a2063616e206f6e6c792072656e6f756e636560008201527f20726f6c657320666f722073656c660000000000000000000000000000000000602082015250565b60006127cc602f83612479565b91506127d782612770565b604082019050919050565b600060208201905081810360008301526127fb816127bf565b9050919050565b7f496e697469616c697a61626c653a20636f6e747261637420697320616c72656160008201527f647920696e697469616c697a6564000000000000000000000000000000000000602082015250565b600061285e602e83612479565b915061286982612802565b604082019050919050565b6000602082019050818103600083015261288d81612851565b9050919050565b600081356128a181611fac565b80915050919050565b60008160001b9050919050565b60007fffffffffffffffffffffffffffffffffffffffffffffffffffffffffffffffff6128e3846128aa565b9350801983169250808416831791505092915050565b600061290482611f0c565b9050919050565b60008160001c9050919050565b60006129238261290b565b9050919050565b612933826128f9565b61294661293f82612918565b83546128b7565b8255505050565b61295681611f25565b811461296157600080fd5b50565b600081356129718161294d565b80915050919050565b600060ff612987846128aa565b9350801983169250808416831791505092915050565b6000819050919050565b60006129c26129bd6129b884611f25565b61299d565b611f25565b9050919050565b6000819050919050565b6129dc826129a7565b6129ef6129e8826129c9565b835461297a565b8255505050565b60008160081b9050919050565b600061ff00612a11846129f6565b9350801983169250808416831791505092915050565b612a30826129a7565b612a43612a3c826129c9565b8354612a03565b8255505050565b600081016000830180612a5c81612894565b9050612a68818461292a565b505050600181016020830180612a7d81612964565b9050612a8981846129d3565b505050600181016040830180612a9e81612964565b9050612aaa8184612a27565b5050505050565b612abb8282612a4a565b5050565b60008135612acc81612072565b80915050919050565b6000612af0612aeb612ae684611f78565b61299d565b611f78565b9050919050565b6000819050919050565b612b0a82612ad5565b612b1d612b1682612af7565b83546128b7565b8255505050565b600081016000830180612b3681612894565b9050612b42818461292a565b505050600181016020830180612b5781612964565b9050612b6381846129d3565b505050600181016040830180612b7881612964565b9050612b848184612a27565b505050600281016060830180612b9981612abf565b9050612ba58184612b01565b505050600381016080830180612bba81612abf565b9050612bc68184612b01565b5050505050565b612bd78282612b24565b5050565b7f46756e64696e67206e6f742065787069726564206f722063616e63656c6c6564600082015250565b6000612c11602083612479565b9150612c1c82612bdb565b602082019050919050565b60006020820190508181036000830152612c4081612c04565b9050919050565b7f526566756e64206e6f7420617661696c61626c6520626563617573652066756e60008201527f64696e6720676f616c2072656163686564000000000000000000000000000000602082015250565b6000612ca3603183612479565b9150612cae82612c47565b604082019050919050565b60006020820190508181036000830152612cd281612c96565b9050919050565b612ce2816120eb565b82525050565b6000606082019050612cfd6000830186612cd9565b612d0a6020830185612cd9565b612d176040830184611f82565b949350505050565b6000604082019050612d346000830185612cd9565b612d416020830184611f82565b9392505050565b600081905092915050565b7f416363657373436f6e74726f6c3a206163636f756e7420000000000000000000600082015250565b6000612d89601783612d48565b9150612d9482612d53565b601782019050919050565b600081519050919050565b60005b83811015612dc8578082015181840152602081019050612dad565b83811115612dd7576000848401525b50505050565b6000612de882612d9f565b612df28185612d48565b9350612e02818560208601612daa565b80840191505092915050565b7f206973206d697373696e6720726f6c6520000000000000000000000000000000600082015250565b6000612e44601183612d48565b9150612e4f82612e0e565b601182019050919050565b6000612e6582612d7c565b9150612e718285612ddd565b9150612e7c82612e37565b9150612e888284612ddd565b91508190509392505050565b6000601f19601f8301169050919050565b6000612eb082612d9f565b612eba8185612479565b9350612eca818560208601612daa565b612ed381612e94565b840191505092915050565b60006020820190508181036000830152612ef88184612ea5565b905092915050565b612f0981611ed6565b8114612f1457600080fd5b50565b600081519050612f2681612f00565b92915050565b600060208284031215612f4257612f41611e47565b5b6000612f5084828501612f17565b91505092915050565b7f5361666545524332303a204552433230206f7065726174696f6e20646964206e60008201527f6f74207375636365656400000000000000000000000000000000000000000000602082015250565b6000612fb5602a83612479565b9150612fc082612f59565b604082019050919050565b60006020820190508181036000830152612fe481612fa8565b9050919050565b7f4e487b7100000000000000000000000000000000000000000000000000000000600052604160045260246000fd5b600061302582611f78565b9150600082141561303957613038612525565b5b600182039050919050565b7f537472696e67733a20686578206c656e67746820696e73756666696369656e74600082015250565b600061307a602083612479565b915061308582613044565b602082019050919050565b600060208201905081810360008301526130a98161306d565b9050919050565b7f416464726573733a20696e73756666696369656e742062616c616e636520666f60008201527f722063616c6c0000000000000000000000000000000000000000000000000000602082015250565b600061310c602683612479565b9150613117826130b0565b604082019050919050565b6000602082019050818103600083015261313b816130ff565b9050919050565b7f416464726573733a2063616c6c20746f206e6f6e2d636f6e7472616374000000600082015250565b6000613178601d83612479565b915061318382613142565b602082019050919050565b600060208201905081810360008301526131a78161316b565b9050919050565b600081519050919050565b600081905092915050565b60006131cf826131ae565b6131d981856131b9565b93506131e9818560208601612daa565b80840191505092915050565b600061320182846131c4565b91508190509291505056fea2646970667358221220ed5fc598b288dc5a44eb15301a51324c0128912e52119fc4fde57f57fe0a574464736f6c63430008090033",
 "linkReferences": {},
 "deployedLinkReferences": {}
}